S00E0000415454696E792E73726563DD
S113000010C01FC01EC01DC01CC01BC01AC019C018
S113001018C06CC016C015C014C013C012C011C0E3
S113002010C011271FBFCFEBD0E0DEBFCDBF20E053
S1130030A0E4B0E001C01D93A136B207E1F77ED27F
S1130040B2C2DECF6FA370A54DA35EA3641775077C
S113005039F46DA37EA34BA35CA364177507E1F089
S11300606FA370A54DA35EA36417750729F44FA36E
S113007050A55CAB4BAB10C06FA370A54BA35CA3A6
S11300806417750729F44FA350A55EAB4DAB04C0AC
S11300904DA35EA350AD4FAB8FA390A5089590AD33
S11300A08FAB9EAB8DAB9CAB8BAB0895CF93C82F1E
S11300B0C9DF892BE9F78C2F90E0880F991F926094
S11300C0EEDF42E048BBCF910895299A319A42E08D
S11300D049BB46B5426046BD47E646BB78940895A1
S11300E0CF93C62FE3DF8C2FCF91E0CF1F930F93D5
S11300F00FB70F9310E04F935F936F937F938F939A
S11301009F93AF93BF93EF93FF9317BB9BDF80FF46
S113011002C0319A01C0319895DF96958795BFDF6B
S113012091DF892B11F418BB17BBFF91EF91BF919D
S1130130AF919F918F917F916F915F914F910F91AB
S11301400FBF0F911F91189548B1442359F048E807
S113015046A948B145A984E2A9DF65A186A1C0DF0B
S113016018B9089549B1442359F049E846A949B159
S113017045A984E29BDF65A186A1B2DF19B9089580
S11301804AB1442359F04AE846A94AB145A984E250
S11301908DDF65A186A1A4DF1AB908954DB144236A
S11301A059F04DE846A94DB145A984E27FDF65A128
S11301B086A196DF1DB908954EB1442359F04EE847
S11301C046A94EB145A984E271DF65A186A188DF05
S11301D01EB908954FB1442359F04FE846A94FB1D1
S11301E045A984E263DF65A186A17ADF1FB908957A
S11301F040B3442359F040E946A940B345A984E2F9
S113020055DF65A186A16CDF10BB089541B344237B
S113021059F041E946A941B345A984E247DF65A104
S113022086A15EDF11BB089542B3442359F042E92D
S113023046A942B345A984E239DF65A186A150DF0E
S113024012BB089543B3442359F043E946A943B389
S113025045A984E22BDF65A186A142DF13BB089583
S113026044B3442359F044E946A944B345A984E27C
S11302701DDF65A186A134DF14BB089545B3442373
S113028059F045E946A945B345A984E20FDF65A1C4
S113029086A126DF15BB089540B5442359F040EAF2
S11302A046A940B545A984E201DF65A186A118DF0E
S11302B010BD089541B5442359F041EA46A941B51A
S11302C045A984E2F3DE65A186A10ADF11BD089584
S11302D042B5442359F042EA46A942B545A984E20D
S11302E0E5DE65A186A1FCDE12BD089543B5442375
S11302F059F043EA46A943B545A984E2D7DE65A18E
S113030086A1EEDE13BD089544B5442359F044EAB2
S113031046A944B545A984E2C9DE65A186A1E0DE0B
S113032014BD089547B5442359F047EA46A947B593
S113033045A984E2BBDE65A186A1D2DE17BD08957E
S113034048B5442359F048EA46A948B545A984E28A
S1130350ADDE65A186A1C4DE18BD089549B5442368
S113036059F049EA46A949B545A984E29FDE65A149
S113037086A1B6DE19BD08954AB5442359F04AEA68
S113038046A94AB545A984E291DE65A186A1A8DE05
S11303901ABD08954BB5442359F04BEA46A94BB511
S11303A045A984E283DE65A186A19ADE1BBD08957A
S11303B04CB5442359F04CEA46A94CB545A984E20E
S11303C075DE65A186A18CDE1CBD08954DB5442360
S11303D059F04DEA46A94DB545A984E267DE65A109
S11303E086A17EDE1DBD089540B7442359F040EB3D
S11303F046A940B745A984E259DE65A186A170DE0D
S113040010BF089545B7442359F045EB46A945B7B5
S113041045A984E24BDE65A186A162DE15BF08957D
S11304204AB7442351F04AEB46A94AB745A984E2A6
S11304303DDE65A186A154DE1ABF08952F933F9334
S1130440CF93DF93CDB7DEB7E82FF92F262F372FC1
S11304506081A22FB32F7C91A42FB52F8C916713A9
S113046008C06817F9F046A96C9165A960816C937E
S113047011C0681308C026A9A22FB32F4C9145A917
S113048040814C9307C0E6A9408145A9A22FB32F10
S11304904C9140832E2F3F2F65A186A121DEE22FB0
S11304A0F32F8081DF91CF913F912F910895482FB1
S11304B0592F4E5F5F4F682F792F6F5F7F4FBECFED
S11304C010A911A912A980E490E0F1DF8431A8F504
S11304D080E490E0ECDF90E0E82FF92FE95BFF4F38
S11304E040814A3A01F180E490E0E1DF90E0895BE9
S11304F09F4F86A980E490E0DADF90E0E82FF92F9F
S1130500E95BFF4F408145A984E2D0DD65A186A166
S1130510E7DD80E490E0CBDF90E0E82FF92FE95BA2
S1130520FF4F4AEA408340A14F5F40A941A14F5F7A
S113053041A942A14F5F42A9C6CF089548ED4CBFDF
S113054016BFC3DD0D9A10A911A912A980E490E089
S1130550AEDF843100F580E490E0A9DF90E0E82F7D
S1130560F92FE95BFF4F4AEA408340A14F5F40A95E
S113057041A14F5F41A942A14F5F42A9E7CF52B1C8
S113058040E2452742B944A14F5F44A94A3019F4D7
S11305908EE28CDD14A994DFD7DD43A14F5F43A91C
S10D05A04113F9CFECCFF894FFCF1C
S9030000FC
