S00E0000415454696E792E73726563DD
S113000010C02AC029C028C027C026C025C024C0CB
S113001023C081C121C020C01FC01EC01DC01CC080
S11300201BC011271FBFCFEBD0E0DEBFCDBF20E048
S1130030A6E4B0E001C01D93A535B207E1F720E0C6
S1130040A0E4B0E0EAEDF7E402C031913D93A634B8
S1130050B207D9F7E4D1BFC3D3CF6FA170A34DA129
S11300605EA16417750749F46DA17EA14BA15CA143
S11300706417750721F040E003C040E001C041E08F
S1130080442319F08FA190A308956FA170A34DA1EB
S11300905EA16417750729F44FA150A35CA94BA96D
S11300A010C06FA170A34BA15CA16417750729F45C
S11300B04FA150A35EA94DA904C04DA15EA150ABB0
S11300C04FA98FA190A3089590AB8FA99EA98DA944
S11300D09CA98BA90895CF93C82FBFDF892B49F41E
S11300E0BCDF8C2F90E0880F991F9260EDDF42E017
S11300F048BBCF91089545B1426045B946B14260CD
S113010046B942E049BB46B5426046BD47E646BBF8
S1130110789408952F933F93CF93DF93CDB7DEB7B1
S1130120C750D10B0FB7F894DEBF0FBFCDBFC25F6E
S1130130DF4F3881CE50D040C15FDF4F4881CF5070
S1130140D040C95FDF4F4883C750D040C05FDF4F06
S11301502881C051D040462F572F671302C078170B
S113016029F0451711F04813672F462F842FB3DF6A
S1130170832FC95FDF4F4881C750D040341302C07A
S1130180421751F0841739F0821729F0C95FDF4F05
S11301903881C750D040832F9EDFCE5FDF4F188356
S11301A01A93C150D040CC5FDF4F18831A93C350C9
S11301B0D040CA5FDF4F18831A93C550D040CF5F39
S11301C0DF4F49915881C250D040CD5FDF4F6991D4
S11301D07881C450D0404617570749F4CB5FDF4FAE
S11301E089919881C650D0406817790701F1461764
S11301F0570739F4CA5FDF4F58834A93C550D0403C
S113020016C0CB5FDF4F89919881C650D040481704
S1130210590739F4CC5FDF4F58834A93C350D04019
S113022006C0CE5FDF4F78836A93C150D040CF5F62
S1130230DF4F49915881C250D040483E63E0560791
S113024008F05DC0CD5FDF4F69917881C450D04024
S11302504617570749F4CB5FDF4F89919881C65001
S1130260D0406817790701F14617570739F4CA5F78
S1130270DF4F58834A93C550D04016C0CB5FDF4F41
S113028089919881C650D0404817590739F4CC5FFA
S1130290DF4F58834A93C350D04006C0CE5FDF4F30
S11302A078836A93C150D040CF5FDF4F4991588122
S11302B0C250D0404F5F5F4FCE5FDF4F58834A93A9
S11302C0C150D040CD5FDF4F49915881C450D040D8
S11302D04F5F5F4FCC5FDF4F58834A93C350D0408A
S11302E0CB5FDF4F49915881C650D0404F5F5F4F7D
S11302F0CA5FDF4F58834A93C550D04060CFC95F6F
S1130300DF4F0FB7F894DEBF0FBFCDBFDF91CF91A2
S11303103F912F9108951F930F930FB70F9310E000
S11303204F935F936F937F938F939F93AF93BF93F9
S1130330EF93FF9392DE80FF04C046B1426046B95A
S113034003C046B14D7F46B988DE96958795BCDEDD
S113035084DE892B11F418BB17BBFF91EF91BF9179
S1130360AF919F918F917F916F915F914F910F9179
S11303700FBF0F911F9118952F933F93CF93DF9346
S1130380282F392FC0E8D0E0C150D10B8C2F9D2FDE
S113039068D08117910729F4C117D10721F440E0EF
S11303A003C040E001C041E04113EECFE22FF32F40
S11303B0C193D083DF91CF913F912F9108952F93D3
S11303C03F93CF93DF93C82FD92F20E030E046A18D
S11303D057A124173507F0F488A199A1E82FF92F24
S11303E0E20FF31F4081642F70E06C177D0779F0F2
S11303F0820F4F934F934F93682F782F8BDEE8A192
S1130400F9A1E20FF31FC0830F910F910F912F5F9A
S11304103F4FDDCFDF91CF913F912F91089548ED6C
S11304204CBF16BF45E04AA966DE41B1406241B9FE
S113043086E490E0A1DF99A988A940E050E066A194
S113044077A14617570748F4E8A1F9A1E40FF51F6F
S11304506AEA60834F5F5F4FF2CF8AEA90E0AFDFD2
S1130460FCCF2F933F93CF93DF9300D000D0CDB731
S1130470DEB7682F792F8230910710F462E070E0C4
S1130480E3E5F0E00191F081E02F40E050E0A0E0EE
S1130490B0E0E117F10709F442C081919081E15085
S11304A0F040EE5FFF4F2081E250F040ED5FFF4FE0
S11304B03081E350F0408617970760F16817790799
S11304C0A9F4A117B10749F0AE5FBF4F2C93A25016
S11304D0B040AD5FBF4F3C9306C0A3E5B0E02C93A2
S11304E0AF5FBF4F3C938E2F9F2F46C041175107DC
S11304F019F08417950770F4482F592FCE5FDF4FFA
S1130500B883AA93C150D040CC5FDF4FF883EA93FD
S1130510C350D040AE2FBF2FE22FF32FBACF4117D5
S1130520510709F445C0461B570B4430510738F5B1
S1130530CD5FDF4FE991F881C450D040EE5FFF4FAB
S113054041915081CF5FDF4F69917881C250D04093
S11305506117710739F0E62FF72FED5FFF4F5083D6
S1130560429304C0E3E5F0E041935083CD5FDF4F55
S113057089919881C450D0408E5F9F4F58C0CD5F01
S1130580DF4F89919881C450D040840F951FE82F84
S1130590F92F619371938E2F9F2F4250510BCD5F92
S11305A0DF4FE991F881C450D040419350833FC05C
S11305B0E1E5F0E041915081E150F040452B31F408
S11305C0A2E4B0E04D915C9141935083E0E4F0E00B
S11305D0419150814117510741F44DB75EB7E4E4AE
S11305E0F0E081919081481B590BE1E5F0E08191A5
S11305F09081E150F04084179507B8F4481B590BDB
S11306004617570790F0A62FB72FAE5FBF4F4A1774
S11306105B0758F0A80FB91FA193B083E82FF92FF7
S1130620619371938E2F9F2F02C080E090E00F9111
S11306300F910F910F91DF91CF913F912F910895D9
S11306402F933F93CF93DF938117910709F4BEC093
S1130650E82FF92FE250F10BED5FFF4F1083129357
S1130660E250F040C3E5D0E0A991B881C150D04038
S1130670A117B10799F441915081E150F040840FE2
S1130680951FA1E5B0E04D915C91A150B040481791
S1130690590709F442C0E993F88398C0CA2FDB2FA5
S11306A040E050E0CE17DF0770F4CE5FDF4F699172
S11306B07881C350D0404C2F5D2F6117710781F1B1
S11306C0C62FD72FEFCFED5FFF4FD083C293E250F9
S11306D0F04021913081E150F040820F931FC81700
S11306E0D907B1F469917881C150D040620F731F6A
S11306F06E5F7F4FEF5FFF4F70836293CE5FDF4F7C
S113070069917881ED5FFF4F70836293E250F0400E
S11307104117510729F4A3E5B0E0ED93FC9356C0CB
S1130720C42FD52FCD5FDF4FF883EA93C250D0405A
S113073089919991C80FD91FEC17FD07B1F4619104
S11307407081E150F040680F791F6E5F7F4FC42FB6
S1130750D52FCF5FDF4F78836A93EE5FFF4F6191B0
S11307607081CD5FDF4F78836A93E0E0F0E0AE5FA5
S1130770BF4F4D915C91A350B0404117510729F0F0
S1130780EA2FFB2FA42FB52FF2CF4D915C91A150EE
S1130790B0406A2F7B2F6E5F7F4F460F571FC1E516
S11307A0D0E0699178816417750781F4E117F10746
S11307B029F4E3E5F0E01193108304C0ED5FFF4FEB
S11307C010831293E1E5F0E0A193B083DF91CF9120
S10D07D03F912F910895F894FFCF94
S10907DA000055002000A0
S9030000FC
