:1000000010C01FC01EC01DC01CC01BC01AC019C01C
:1000100018C06CC016C015C014C013C012C011C0E7
:1000200010C011271FBFCFEBD0E0DEBFCDBF20E057
:10003000A0E4B0E001C01D93A039B207E1F7CCD233
:1000400030C3DECF6EA07FA04CA05DA06417750703
:1000500039F46CA07DA04AA05BA064177507E1F09D
:100060006EA07FA04CA05DA06417750729F44EA078
:100070005FA05BA84AA810C06EA07FA04AA05BA0AA
:100080006417750729F44EA05FA05DA84CA804C0B2
:100090004CA05DA05FA84EA88EA09FA008959FA829
:1000A0008EA89DA88CA89BA88AA80895CF93C82F36
:1000B000C9DF892B41F48C2F90E0880F991F926043
:1000C000EEDF42E048BBCF910895299A319A42E091
:1000D00049BB46B5426046BD47E646BB78940895A5
:1000E000CF93C62FE3DF8C2FCF91E0CF1F930F93D9
:1000F0000FB70F9310E04F935F936F937F938F939E
:100100009F93AF93BF93EF93FF939CDF80FF02C059
:10011000319A01C0319896DF96958795C0DF92DFBE
:10012000892B11F418BB17BBFF91EF91BF91AF91D1
:100130009F918F917F916F915F914F910F910FBF21
:100140000F911F91189548B1442359F048E843A9ED
:1001500048B142A984E2AADF62A183A1C1DF18B934
:10016000089549B1442359F049E843A949B142A946
:1001700084E29CDF62A183A1B3DF19B908954AB17B
:10018000442359F04AE843A94AB142A984E28EDFE8
:1001900062A183A1A5DF1AB908954DB1442359F096
:1001A0004DE843A94DB142A984E280DF62A183A159
:1001B00097DF1DB908954EB1442359F04EE843A985
:1001C0004EB142A984E272DF62A183A189DF1EB928
:1001D00008954FB1442359F04FE843A94FB142A9C4
:1001E00084E264DF62A183A17BDF1FB9089540B37D
:1001F000442359F040E943A940B342A984E256DFC1
:1002000062A183A16DDF10BB089541B3442359F06F
:1002100041E943A941B342A984E248DF62A183A135
:100220005FDF11BB089542B3442359F042E943A96B
:1002300042B342A984E23ADF62A183A151DF12BB3B
:10024000089543B3442359F043E943A943B342A972
:1002500084E22CDF62A183A143DF13BB089544B382
:10026000442359F044E943A944B342A984E21EDF80
:1002700062A183A135DF14BB089545B3442359F02F
:1002800045E943A945B342A984E210DF62A183A1F5
:1002900027DF15BB089548B3442359F048E943A923
:1002A00048B342A984E202DF62A183A119DF18BB2F
:1002B000089540B5442359F040EA43A940B542A906
:1002C00084E2F4DE62A183A10BDF10BD089541B585
:1002D000442359F041EA43A941B542A984E2E6DE4C
:1002E00062A183A1FDDE11BD089542B5442359F0FA
:1002F00042EA43A942B542A984E2D8DE62A183A1C1
:10030000EFDE12BD089543B5442359F043EA43A9F3
:1003100043B542A984E2CADE62A183A1E1DE13BD36
:10032000089544B5442359F044EA43A944B542A989
:1003300084E2BCDE62A183A1D3DE14BD089547B57B
:10034000442359F047EA43A947B542A984E2AEDE07
:1003500062A183A1C5DE17BD089548B5442359F0B5
:1003600048EA43A948B542A984E2A0DE62A183A17C
:10037000B7DE18BD089549B5442359F049EA43A9A9
:1003800049B542A984E292DE62A183A1A9DE19BD2A
:1003900008954AB5442359F04AEA43A94AB542A907
:1003A00084E284DE62A183A19BDE1ABD08954BB571
:1003B000442359F04BEA43A94BB542A984E276DEC7
:1003C00062A183A18DDE1BBD08954CB5442359F075
:1003D0004CEA43A94CB542A984E268DE62A183A13C
:1003E0007FDE1CBD08954DB5442359F04DEA43A965
:1003F0004DB542A984E25ADE62A183A171DE1DBD22
:10040000089540B7442359F040EB43A940B742A9AF
:1004100084E24CDE62A183A163DE10BF089545B77C
:10042000442359F045EB43A945B742A984E23EDE97
:1004300062A183A155DE15BF08954AB7442351F048
:100440004AEB43A94AB742A984E230DE62A183A104
:1004500047DE1ABF08952F933F93CF93DF93CDB715
:10046000DEB7E82FF92F262F372F6081A22FB32F69
:100470007C91A42FB52F8C91671308C06817F9F0F1
:1004800043A96C9162A960816C9311C0681308C084
:1004900023A9A22FB32F4C9142A940814C9307C0AE
:1004A000E3A9408142A9A22FB32F4C9140832E2F64
:1004B0003F2F62A183A114DEE22FF32F8081DF9111
:1004C000CF913F912F910895482F592F4E5F5F4F45
:1004D000682F792F6F5F7F4FBECF2F933F93CF93BE
:1004E000DF9300D01F93CDB7DEB7282F392FCF5F12
:1004F000DF4F1883C150D040CE5FDF4F1883C2500A
:10050000D040CD5FDF4F1883C350D0408C2F9D2F3C
:100510008F5F9F4FD9DF863408F056C08C2F9D2FF8
:100520008F5F9F4FD1DF90E0E82FF92FEC5BFF4FFB
:10053000408150E04217530729F18C2F9D2F8F5F88
:100540009F4FC2DF90E08C5B9F4F83A98C2F9D2F24
:100550008F5F9F4FB9DF90E0E82FF92FEC5BFF4FE3
:10056000408142A984E2A2DD62A183A1B9DD8C2F82
:100570009D2F8F5F9F4FA8DF90E0E82FF92FEC5B56
:10058000FF4F2083CF5FDF4F4881C150D0404F5F86
:10059000CF5FDF4F4883C150D040CE5FDF4F4881EF
:1005A000C250D0404F5FCE5FDF4F4883C250D04033
:1005B000CD5FDF4F4881C350D0404F5FCD5FDF4FED
:1005C0004883C350D040A2CF0F910F910F91DF917C
:1005D000CF913F912F910895CF93DF9300D01F9338
:1005E000CDB7DEB748ED4CBF16BF6FDD0D9ACF5FBC
:1005F000DF4F1883C150D040CE5FDF4F1883C25009
:10060000D040CD5FDF4F1883C350D0408C2F9D2F3B
:100610008F5F9F4F59DF8634D0F58C2F9D2F8F5FD2
:100620009F4F52DF90E0E82FF92FEC5BFF4F4AEA33
:100630004083CF5FDF4F4881C150D0404F5FCF5FD5
:10064000DF4F4883C150D040CE5FDF4F4881C2505A
:10065000D0404F5FCE5FDF4F4883C250D040CD5F68
:10066000DF4F4881C350D0404F5FCD5FDF4F48839D
:10067000C350D040CBCF52B140E2452742B941A14F
:100680004F5F41A94A3019F48EE210DD11A98AEAC0
:1006900090E023DF58DD40A14F5F40A94113F7CF21
:0606A000EACFF894FFCF41
:00000001FF
