:1000000010C01FC01EC01DC01CC01BC01AC019C01C
:1000100018C06CC016C015C014C013C012C011C0E7
:1000200010C011271FBFCFEBD0E0DEBFCDBF20E057
:10003000A0E4B0E001C01D93AF37B207E1F707D2EB
:100040003BC2DECF6DA77EA74BA75CA764177507E1
:1000500039F46BA77CA749A75AA764177507E1F085
:100060006DA77EA74BA75CA76417750729F44DA75A
:100070005EA75AAF49AF10C06DA77EA749A75AA780
:100080006417750729F44DA75EA75CAF4BAF04C09A
:100090004BA75CA75EAF4DAF8DA79EA708959EAFFF
:1000A0008DAF9CAF8BAF9AAF89AF0895CF93C82F18
:1000B000C9DF892BE9F78C2F90E0880F991F926098
:1000C000EEDF42E048BBCF910895299A319A42E091
:1000D00049BB46B5426046BD47E646BB78940895A5
:1000E000CF93C62FE3DF8C2FCF91E0CF1F930F93D9
:1000F0000FB70F9310E04F935F936F937F938F939E
:100100009F93AF93BF93EF93FF9317BB9BDF80FF4A
:1001100002C0319A01C0319895DF96958795BFDF6F
:1001200091DF892B11F418BB17BBFF91EF91BF91A1
:10013000AF919F918F917F916F915F914F910F91AF
:100140000FBF0F911F91189548B1437049F048E0D7
:1001500046A948B1437045A948B14C7F48B9E9C0A8
:1001600049B1442331F049E046A949B145A919B93B
:10017000E0C04AB14F7049F04AE046A94AB14F7019
:1001800045A94AB1407F4AB9D4C04DB1442331F0AA
:100190004DE046A94DB145A91DB9CBC040B34F773D
:1001A00049F040E146A940B34F7745A940B34078B4
:1001B00040BBBFC041B34F7C49F041E146A941B3C8
:1001C0004F7C45A941B3407341BBB3C042B3442304
:1001D00031F042E146A942B345A912BBAAC043B3DC
:1001E0004F7E49F043E146A943B34F7E45A943B34F
:1001F000407143BB9EC045B3442331F045E146A95D
:1002000045B345A915BB95C040B5442331F040E244
:1002100046A940B545A910BD8CC041B5442331F075
:1002200041E246A941B545A911BD83C043B54F7D03
:1002300049F043E246A943B54F7D45A943B5407215
:1002400043BD77C044B5437F49F044E246A944B575
:10025000437F45A944B54C7044BD6BC047B5417858
:1002600049F047E246A947B5417845A947B54E77D9
:1002700047BD5FC048B5442331F048E246A948B5C0
:1002800045A918BD56C049B5442331F049E246A9F5
:1002900049B545A919BD4DC04AB5442331F04AE2DC
:1002A00046A94AB545A91ABD44C04BB54F7C49F093
:1002B0004BE246A94BB54F7C45A94BB540734BBDAE
:1002C00038C00CB502FF09C04CE246A94CB54470D9
:1002D00045A94CB54B7F4CBD2CC04DB54F7B49F06B
:1002E0004DE246A94DB54F7B45A94DB540744DBD76
:1002F00020C040B7442331F040E346A940B745A9A8
:1003000010BF17C045B74F7149F045E346A945B73F
:100310004F7145A945B7407E45BF0BC04AB74F7DD9
:1003200079F04AE346A94AB74F7D45A94AB74072DA
:100330004ABF84E2BBDE84E2B9DE65A186A1D0CEED
:1003400008952F933F93CF93DF93CDB7DEB7E82F78
:10035000F92F262F372F6081A22FB32F7C91A42F46
:10036000B52F8C91671308C0681719F146A96C91D5
:1003700065A960816C9311C0681308C026A9A22FDB
:10038000B32F4C9145A940814C9307C0E6A9408109
:1003900045A9A22FB32F4C9140832E2F3F2F84E2EB
:1003A00085DE84E583DE65A186A19ADEE22FF32F48
:1003B0008081DF91CF913F912F910895482F592F40
:1003C0004E5F5F4F682F792F6F5F7F4FBACF10A9B5
:1003D00011A912A980E490E0F1DF8233B8F580E43E
:1003E00090E0ECDF90E0E82FF92FE95BFF4F4081D0
:1003F0004A3A11F180E490E0E1DF90E0895B9F4FA1
:1004000086A980E490E0DADF90E0E82FF92FE95B3D
:10041000FF4F408145A980E490E0D0DF90E0E82FD5
:10042000F92FE95BFF4F4AEA408384E23FDE82E531
:100430003DDE65A186A154DE40A14F5F40A941A1E8
:100440004F5F41A942A14F5F42A9C4CF089548ED33
:100450004CBF16BF3ADE0D9A10A911A912A980E46B
:1004600090E0ACDF823300F580E490E0A7DF90E01D
:10047000E82FF92FE95BFF4F4AEA408340A14F5F25
:1004800040A941A14F5F41A942A14F5F42A9E7CFD7
:1004900052B140E2452742B944A14F5F44A94A30D6
:1004A00019F48EE203DE14A992DF4EDE43A14F5F02
:0C04B00043A94113F9CFECCFF894FFCF23
:00000001FF
