S00E0000415454696E792E73726563DD
S113000010C01FC01EC01DC01CC01BC01AC019C018
S113001018C06CC016C015C014C013C012C011C0E3
S113002010C011271FBFCFEBD0E0DEBFCDBF20E053
S1130030A0E4B0E001C01D93A837B207E1F791D264
S1130040EFC2DECF66A777A744A755A76417750745
S113005039F464A775A742A753A764177507E1F09D
S113006066A777A744A755A76417750729F446A779
S113007057A753AF42AF10C066A777A742A753A7AD
S11300806417750729F446A757A755AF44AF04C0B2
S113009044A755A757AF46AF86A797A7089597AF2C
S11300A086AF95AF84AF93AF82AF0895CF93C82F37
S11300B0C9DF892B41F48C2F90E0880F991F92603F
S11300C0EEDF42E048BBCF910895299A319A42E08D
S11300D049BB46B5426046BD47E646BB78940895A1
S11300E0CF93C62FE3DF8C2FCF91E0CF1F930F93D5
S11300F00FB70F9310E04F935F936F937F938F939A
S11301009F93AF93BF93EF93FF939CDF80FF02C055
S1130110319A01C0319896DF96958795C0DF92DFBA
S1130120892B11F418BB17BBFF91EF91BF91AF91CD
S11301309F918F917F916F915F914F910F910FBF1D
S11301400F911F91189548B1442349F04FEF42A9EC
S113015048E041A968E08FEFC3DF18B9089549B1B9
S1130160442349F04FEF42A949E041A969E08FEFE8
S1130170B7DF19B908954AB1442349F04FEF42A9B2
S11301804AE041A96AE08FEFABDF1AB908954DB197
S1130190442349F04FEF42A94DE041A96DE08FEFB0
S11301A09FDF1DB908954EB1442349F04FEF42A992
S11301B04EE041A96EE08FEF93DF1EB908954FB171
S11301C0442349F04FEF42A94FE041A96FE08FEF7C
S11301D087DF1FB9089540B3442349F04FEF42A984
S11301E040E141A960E18FEF7BDF10BB089541B38B
S11301F0442349F04FEF42A941E141A961E18FEF66
S11302006FDF11BB089542B3442349F04FEF42A975
S113021042E141A962E18FEF63DF12BB089543B36A
S1130220442349F04FEF42A943E141A963E18FEF31
S113023057DF13BB089544B3442349F04FEF42A959
S113024044E141A964E18FEF4BDF14BB089545B34A
S1130250442349F04FEF42A945E141A965E18FEFFD
S11302603FDF15BB089548B3442349F04FEF42A93B
S113027048E141A968E18FEF33DF18BB089540B529
S1130280442349F04FEF42A940E241A960E28FEFD5
S113029027DF10BD089541B5442349F04FEF42A92B
S11302A041E241A961E28FEF1BDF11BD089542B520
S11302B0442349F04FEF42A942E241A962E28FEFA1
S11302C00FDF12BD089543B5442349F04FEF42A90F
S11302D043E241A963E28FEF03DF13BD089544B500
S11302E0442349F04FEF42A944E241A964E28FEF6D
S11302F0F7DE14BD089547B5442349F04FEF42A9F2
S113030047E241A967E28FEFEBDE17BD089548B5D8
S1130310442349F04FEF42A948E241A968E28FEF34
S1130320DFDE18BD089549B5442349F04FEF42A9D3
S113033049E241A969E28FEFD3DE19BD08954AB5B8
S1130340442349F04FEF42A94AE241A96AE28FEF00
S1130350C7DE1ABD08954BB5442349F04FEF42A9B7
S11303604BE241A96BE28FEFBBDE1BBD08954CB598
S1130370442349F04FEF42A94CE241A96CE28FEFCC
S1130380AFDE1CBD08954DB5442349F04FEF42A99B
S11303904DE241A96DE28FEFA3DE1DBD089540B784
S11303A0442349F04FEF42A940E341A960E38FEFB2
S11303B097DE10BF089545B7442349F04FEF42A993
S11303C045E341A965E38FEF8BDE15BF08954AB776
S11303D0442341F04FEF42A94AE341A96AE38FEF76
S11303E07FDE1ABF08952F933F93CF93DF93CDB74A
S11303F0DEB7E82FF92F262F372F6081A22FB32FD6
S11304007C91A42FB52F8C91671308C06817F9F05D
S113041042A96C9161A960816C9311C0681308C0F2
S113042022A9A22FB32F4C9141A940814C9307C01C
S1130430E2A9408141A9A22FB32F4C9140832E2FD2
S11304403F2F61A182A14CDEE22FF32F8081DF9147
S1130450CF913F912F910895482F592F4E5F5F4FB1
S1130460682F792F6F5F7F4FBECF2F933F93CF932A
S1130470DF9300D01F93CDB7DEB7282F392FCF5F7E
S1130480DF4F1883C150D040CE5FDF4F1883C25076
S1130490D040CD5FDF4F1883C350D0408C2F9D2FA9
S11304A08F5F9F4FD9DF8F3208F053C08C2F9D2F61
S11304B08F5F9F4FD1DF90E0E82FF92FED5BFF4F67
S11304C0408150E04217530711F18C2F9D2F8F5F0D
S11304D09F4FC2DF90E08D5B9F4F82A98C2F9D2F91
S11304E08F5F9F4FB9DF90E0E82FF92FED5BFF4F4F
S11304F0608161A982A1F4DD8C2F9D2F8F5F9F4FB6
S1130500ABDF90E0E82FF92FED5BFF4F2083CF5F47
S1130510DF4F4881C150D0404F5FCF5FDF4F4883EA
S1130520C150D040CE5FDF4F4881C250D0404F5FB2
S1130530CE5FDF4F4883C250D040CD5FDF4F48814C
S1130540C350D0404F5FCD5FDF4F4883C350D0408E
S1130550A5CF0F910F910F91DF91CF913F912F91E3
S11305600895CF93DF9300D01F93CDB7DEB748ED46
S11305704CBF16BFAADD0D9ACF5FDF4F1883C15061
S1130580D040CE5FDF4F1883C250D040CD5FDF4FE5
S11305901883C350D0408C2F9D2F8F5F9F4F5CDFFB
S11305A08F32A0F58C2F9D2F8F5F9F4F55DF90E0EA
S11305B0E82FF92FED5BFF4F4AEA4083CF5FDF4F0F
S11305C04881C150D0404F5FCF5FDF4F4883C15057
S11305D0D040CE5FDF4F4881C250D0404F5FCE5FE6
S11305E0DF4F4883C250D040CD5FDF4F4881C350B6
S11305F0D0404F5FCD5FDF4F4883C350D040CBCF57
S113060052B140E2452742B98EE250DD8AEA90E0D9
S11306102CDF99DD40A14F5F40A94113F7CFF0CF04
S1070620F894FFCF78
S9030000FC
