:1000000010C01FC01EC01DC01CC01BC01AC019C01C
:1000100018C06CC016C015C014C013C012C011C0E7
:1000200010C011271FBFCFEBD0E0DEBFCDBF20E057
:10003000A0E4B0E001C01D93AA37B207E1F78DD16B
:10004000EAC1DECF68A779A746A757A76417750747
:1000500039F466A777A744A755A764177507E1F099
:1000600068A779A746A757A76417750729F448A773
:1000700059A755AF44AF10C068A779A744A755A7A3
:100080006417750729F448A759A757AF46AF04C0AE
:1000900046A757A759AF48AF88A799A7089599AF22
:1000A00088AF97AF86AF95AF84AF0895CF93C82F31
:1000B000C9DF892B41F48C2F90E0880F991F926043
:1000C000EEDF42E048BBCF910895299A319A42E091
:1000D00049BB46B5426046BD47E646BB78940895A5
:1000E000CF93C62FE3DF8C2FCF91E0CF1F930F93D9
:1000F0000FB70F9310E04F935F936F937F938F939E
:100100009F93AF93BF93EF93FF939CDF80FF02C059
:10011000319A01C0319896DF96958795C0DF92DFBE
:10012000892B11F418BB17BBFF91EF91BF91AF91D1
:100130009F918F917F916F915F914F910F910FBF21
:100140000F911F9118952F933F93CF93DF93CDB7C6
:10015000DEB7E82FF92F262F372F6081A22FB32F7C
:100160007C91A42FB52F8C91671308C06817F9F004
:1001700048A96C9167A960816C9311C0681308C08D
:1001800028A9A22FB32F4C9147A940814C9307C0B7
:10019000E8A9408147A9A22FB32F4C9140832E2F6D
:1001A0003F2F67A188A19CDFE22FF32F8081DF9191
:1001B000CF913F912F910895482F592F4E5F5F4F58
:1001C000682F792F6F5F7F4FBECFCF93DF93E82FDC
:1001D000F92F61917081E150F040EE5FFF4F419146
:1001E0005081E350F040EC5FFF4FA191B081E550AA
:1001F000F0406417750791F48A2F9B2F6A177B07CD
:1002000051F14E2F5F2F4C5F5F4F48A9A7A9EB5FBD
:10021000FF4F70836293E450F04014C06A177B076D
:1002200059F48E5F9F4F88A947A9ED5FFF4F7083F8
:100230006293E250F04006C088A967A9EF5FFF4FC4
:1002400050834293CE2FDF2F67A188A149DF888199
:10025000CF5FDF4F9881DF91CF9108952F933F9328
:10026000CF93DF9300D01F93CDB7DEB7282F392F60
:10027000CF5FDF4F1883C150D040CE5FDF4F188370
:10028000C250D040CD5FDF4F1883C350D0408C2F79
:100290009D2F8F5F9F4F90DF8B3208F056C080E418
:1002A00090E093DF8C2F9D2F8F5F9F4F85DF90E035
:1002B000E82FF92FE75BFF4F408150E042175307CB
:1002C00011F18C2F9D2F8F5F9F4F76DF90E0875B22
:1002D0009F4F88A98C2F9D2F8F5F9F4F6DDF90E0E0
:1002E000E82FF92FE75BFF4F608167A988A1F8DE4F
:1002F0008C2F9D2F8F5F9F4F5FDF90E0E82FF92FAE
:10030000E75BFF4F2083CF5FDF4F4881C150D04074
:100310004F5FCF5FDF4F4883C150D040CE5FDF4F8C
:100320004881C250D0404F5FCE5FDF4F4883C250FC
:10033000D040CD5FDF4F4881C350D0404F5FCD5F8D
:10034000DF4F4883C350D040A2CF0F910F910F9140
:10035000DF91CF913F912F910895CF93DF9300D0FC
:100360001F93CDB7DEB748ED4CBF16BFAEDE0D9A7A
:10037000CF5FDF4F1883C150D040CE5FDF4F18836F
:10038000C250D040CD5FDF4F1883C350D0408C2F78
:100390009D2F8F5F9F4F10DF8B32A0F58C2F9D2FED
:1003A0008F5F9F4F09DF90E0E82FF92FE75BFF4F4A
:1003B0004AEA4083CF5FDF4F4881C150D0404F5F52
:1003C000CF5FDF4F4883C150D040CE5FDF4F4881C1
:1003D000C250D0404F5FCE5FDF4F4883C250D04005
:1003E000CD5FDF4F4881C350D0404F5FCD5FDF4FBF
:1003F0004883C350D040CBCF52B140E2452742B9E9
:100400008EE254DE8AEA90E029DF46A14F5F46A9DA
:0A0410004113F8CFF1CFF894FFCFAD
:00000001FF
