S00E0000415454696E792E73726563DD
S113000010C01FC01EC01DC01CC01BC01AC019C018
S113001018C06FC016C015C014C013C012C011C0E0
S113002010C011271FBFCFEBD0E0DEBFCDBF20E053
S1130030A0E4B0E001C01D93A73AB207E1F706D1EE
S113004039C1DECF65A476A443A454A4641775070C
S113005039F463A474A441A452A464177507E1F0AD
S113006065A476A443A454A46417750729F445A48D
S113007056A452AC41AC10C065A476A441A452A4C9
S11300806417750729F445A456A454AC43AC04C0C2
S113009043A454A456AC45AC85A496A4089596AC48
S11300A085AC94AC83AC92AC81AC0895CF93C82F4B
S11300B0C9DF892BE9F7C6DF892B41F48C2F90E047
S11300C0880F991F9260EBDF42E048BBCF910895FF
S11300D0299A319A42E049BB46B5426046BD47E69B
S11300E046BB78940895CF93C62FE0DF8C2FCF9131
S11300F0DDCF1F930F930FB70F9310E04F935F93D0
S11301006F937F938F939F93AF93BF93EF93FF93DB
S113011099DF80FF02C0319A01C0319893DF969530
S11301208795BDDF8FDF892B11F418BB17BBFF91B7
S1130130EF91BF91AF919F918F917F916F915F915B
S11301404F910F910FBF0F911F9118952F933F93CC
S1130150CF93DF93CDB7DEB7E82FF92F262F372FB4
S11301606081A22FB32F7C91A42FB52F8C9167139C
S113017008C06817F9F046A96C9165A960816C9371
S113018011C0681308C026A9A22FB32F4C9145A90A
S113019040814C9307C0E6A9408145A9A22FB32F03
S11301A04C9140832E2F3F2F65A186A19CDFE22F27
S11301B0F32F8081DF91CF913F912F910895482FA4
S11301C0592F4E5F5F4F682F792F6F5F7F4FBECFE0
S11301D010A911A912A980E490E0F1DF8A35A8F5ED
S11301E080E490E0ECDF90E0E82FF92FE95BFF4F2B
S11301F040814A3A01F180E490E0E1DF90E0895BDC
S11302009F4F86A980E490E0DADF90E0E82FF92F91
S1130210E95BFF4F408145A984E248DF65A186A1DF
S113022062DF80E490E0CBDF90E0E82FF92FE95B18
S1130230FF4F4AEA408340A14F5F40A941A14F5F6D
S113024041A942A14F5F42A9C6CF089548ED4CBFD2
S113025016BF3EDF0D9A10A911A912A980E490E0FF
S1130260AEDF8A3500F580E490E0A9DF90E0E82F66
S1130270F92FE95BFF4F4AEA408340A14F5F40A951
S113028041A14F5F41A942A14F5F42A9E7CF52B1BB
S113029040E2452742B944A14F5F44A94A3019F4CA
S11302A08EE204DF14A994DF43A14F5F43A94113F5
S10B02B0FACFEDCFF894FFCF63
S9030000FC
