:1000000010C02AC029C028C027C026C025C024C0CF
:1000100023C077C021C020C01FC01EC01DC01CC08F
:100020001BC011271FBFCFEBD0E0DEBFCDBF20E04C
:10003000A6E4B0E001C01D93AB35B207E1F720E0C4
:10004000A0E4B0E0EAEFF7E402C031913D93A634BA
:10005000B207D9F7ACD1CFC3D3CF65A376A343A35F
:1000600054A36417750739F463A374A341A352A37F
:1000700064177507E1F065A376A343A354A364173F
:10008000750729F445A356A352AB41AB10C065A335
:1000900076A341A352A36417750729F445A356A379
:1000A00054AB43AB04C043A354A356AB45AB85A3A9
:1000B00096A3089596AB85AB94AB83AB92AB81AB23
:1000C0000895CF93C82FC9DF892B41F48C2F90E07E
:1000D000880F991F9260EEDF42E048BBCF910895F0
:1000E000299A319A42E049BB46B5426046BD47E68F
:1000F00046BB78940895CF93C62FE3DF8C2FCF9122
:10010000E0CF1F930F930FB70F9310E04F935F93C0
:100110006F937F938F939F93AF93BF93EF93FF93CF
:100120009CDF80FF02C0319A01C0319896DF96951E
:100130008795C0DF92DF892B11F418BB17BBFF91A5
:10014000EF91BF91AF919F918F917F916F915F914F
:100150004F910F910FBF0F911F9118952F933F93C0
:10016000CF93DF93CDB7DEB7E82FF92F262F372FA8
:100170006081A22FB32F7C91A42FB52F8C91671390
:1001800008C06817F9F040AB6C916FA960816C935F
:1001900011C0681308C020ABA22FB32F4C914FA9F8
:1001A00040814C9307C0E0AB40814FA9A22FB32FF1
:1001B0004C9140832E2F3F2F6FA180A39CDFE22F15
:1001C000F32F8081DF91CF913F912F910895482F98
:1001D000592F4E5F5F4F682F792F6F5F7F4FBECFD4
:1001E000CF93DF93E82FF92F61917081E150F040B8
:1001F000EE5FFF4F41915081E350F040EC5FFF4FC5
:10020000A191B081E550F0406417750791F48A2FF1
:100210009B2F6A177B0751F14E2F5F2F4C5F5F4F6B
:1002200040ABAFA9EB5FFF4F70836293E450F040A7
:1002300014C06A177B0759F48E5F9F4F80AB4FA99C
:10024000ED5FFF4F70836293E250F04006C080ABD9
:100250006FA9EF5FFF4F50834293CE2FDF2F6FA127
:1002600080A349DF8881CF5FDF4F9881DF91CF91F5
:1002700008952F933F93CF93DF93C82FD92F20E872
:1002800030E02150310B822F932FFBD08117910743
:1002900039F029933883DF91CF913F912F910895C1
:1002A0002117310771F7F5CF2F933F93CF93DF934A
:1002B00000D000D01F93CDB7DEB7CB5FDF4F988360
:1002C0008A93C450D040CF5FDF4F1883C150D040D5
:1002D000CE5FDF4F1883C250D040CD5FDF4F188311
:1002E000C350D0408C2F9D2F8F5F9F4F70DF90E0C9
:1002F00046A157A18417950708F04FC088E490E005
:100300006FDF282F392FCF5FDF4F8881C150D0405A
:10031000E22FF32FE80FF11F408150E0CC5FDF4F59
:1003200069917881C550D04046175707A1F0820FD8
:1003300080AB60816FA9DFDE8C2F9D2F8F5F9F4F79
:1003400046DFE22FF32FE80FF11FCC5FDF4F7881FC
:10035000C450D0407083CF5FDF4F4881C150D04040
:100360004F5FCF5FDF4F4883C150D040CE5FDF4F3C
:100370004881C250D0404F5FCE5FDF4F4883C250AC
:10038000D040CD5FDF4F4881C350D0404F5FCD5F3D
:10039000DF4F4883C350D040A5CF0F910F910F91ED
:1003A0000F910F91DF91CF913F912F910895CF93AE
:1003B000DF9300D01F93CDB7DEB748ED4CBF16BF1B
:1003C0008FDE0D9A86E490E054DF99A988A99BA955
:1003D0008AA99DA98CA9CF5FDF4F1883C150D04057
:1003E000CE5FDF4F1883C250D040CD5FDF4F188300
:1003F000C350D0408C2F9D2F8F5F9F4FE8DE90E041
:1004000046A157A18417950798F5CF5FDF4F488124
:10041000C150D040E8A1F9A1E40FF11F4AEA40839E
:10042000CF5FDF4F4881C150D0404F5FCF5FDF4F7C
:100430004883C150D040CE5FDF4F4881C250D0408A
:100440004F5FCE5FDF4F4883C250D040CD5FDF4F5C
:100450004881C350D0404F5FCD5FDF4F4883C350CA
:10046000D040C8CF52B140E2452742B98EE229DEE2
:100470008AEA90E019DF4EA14F5F4EA94113F8CFF1
:10048000F1CF2F933F93CF93DF9300D000D0CDB720
:10049000DEB7682F792F8230910710F462E070E0A8
:1004A000E9E5F0E00191F081E02F40E050E0A0E0CC
:1004B000B0E0E117F10709F442C081919081E15069
:1004C000F040EE5FFF4F2081E250F040ED5FFF4FC4
:1004D0003081E350F0408617970760F1681779077D
:1004E000A9F4A117B10749F0AE5FBF4F2C93A250FA
:1004F000B040AD5FBF4F3C9306C0A9E5B0E02C9380
:10050000AF5FBF4F3C938E2F9F2F46C041175107BF
:1005100019F08417950770F4482F592FCE5FDF4FDD
:10052000B883AA93C150D040CC5FDF4FF883EA93E1
:10053000C350D040AE2FBF2FE22FF32FBACF4117B9
:10054000510709F445C0461B570B4430510738F595
:10055000CD5FDF4FE991F881C450D040EE5FFF4F8F
:1005600041915081CF5FDF4F69917881C250D04077
:100570006117710739F0E62FF72FED5FFF4F5083BA
:10058000429304C0E9E5F0E041935083CD5FDF4F33
:1005900089919881C450D0408E5F9F4F58C0CD5FE5
:1005A000DF4F89919881C450D040840F951FE82F68
:1005B000F92F619371938E2F9F2F4250510BCD5F76
:1005C000DF4FE991F881C450D040419350833FC040
:1005D000E7E5F0E041915081E150F040452B31F4E6
:1005E000A2E4B0E04D915C9141935083E0E4F0E0EF
:1005F000419150814117510741F44DB75EB7E4E492
:10060000F0E081919081481B590BE7E5F0E0819182
:100610009081E150F04084179507B8F4481B590BBE
:100620004617570790F0A62FB72FAE5FBF4F4A1758
:100630005B0758F0A80FB91FA193B083E82FF92FDB
:10064000619371938E2F9F2F02C080E090E00F91F5
:100650000F910F910F91DF91CF913F912F910895BD
:100660002F933F93CF93DF938117910709F4BEC077
:10067000E82FF92FE250F10BED5FFF4F108312933B
:10068000E250F040C9E5D0E0A991B881C150D04016
:10069000A117B10799F441915081E150F040840FC6
:1006A000951FA7E5B0E04D915C91A150B04048176F
:1006B000590709F442C0E993F88398C0CA2FDB2F89
:1006C00040E050E0CE17DF0770F4CE5FDF4F699156
:1006D0007881C350D0404C2F5D2F6117710781F195
:1006E000C62FD72FEFCFED5FFF4FD083C293E250DD
:1006F000F04021913081E150F040820F931FC817E4
:10070000D907B1F469917881C150D040620F731F4D
:100710006E5F7F4FEF5FFF4F70836293CE5FDF4F5F
:1007200069917881ED5FFF4F70836293E250F040F2
:100730004117510729F4A9E5B0E0ED93FC9356C0A9
:10074000C42FD52FCD5FDF4FF883EA93C250D0403E
:1007500089919991C80FD91FEC17FD07B1F46191E8
:100760007081E150F040680F791F6E5F7F4FC42F9A
:10077000D52FCF5FDF4F78836A93EE5FFF4F619194
:100780007081CD5FDF4F78836A93E0E0F0E0AE5F89
:10079000BF4F4D915C91A350B0404117510729F0D4
:1007A000EA2FFB2FA42FB52FF2CF4D915C91A150D2
:1007B000B0406A2F7B2F6E5F7F4F460F571FC7E5F4
:1007C000D0E0699178816417750781F4E117F1072A
:1007D00029F4E9E5F0E01193108304C0ED5FFF4FC9
:1007E00010831293E7E5F0E0A193B083DF91CF91FE
:0A07F0003F912F910895F894FFCF78
:0607FA0000005B0020007E
:00000001FF
