:1000000010C01FC01EC01DC01CC01BC01AC019C01C
:1000100018C017C016C015C014C013C012C011C03C
:1000200010C011271FBFCFEBD0E0DEBFCDBF20E057
:10003000A0E4B0E001C01D93AA37B207E1F7B2D245
:10004000E6C2DECF2F933F93CF93DF9300D0CDB79F
:10005000DEB7E82FF92F242F352F41915081E15041
:10006000F040A62FB72F8D919C91A22FB32F0D9109
:10007000BC91A02FCE5FDF4FB883AA93C150D04070
:100080004817590781F4CF5FDF4F8881C150D040B6
:10009000CE5FDF4F9881C250D0404A175B07C9F04E
:1000A000A22FB32F0BC0CF5FDF4FA991B881C250F1
:1000B000D0404A175B0729F4A62FB72F4D935C93C6
:1000C00004C0EF5FFF4F908382938081EF5FFF4F0B
:1000D00090810F910F91DF91CF913F912F910895D2
:1000E000482F592F4C5F5F4F682F792F6E5F7F4FDE
:1000F000A9DF0895CF93DF9300D000D000D0CDB713
:10010000DEB7462F50E0440F551F5260CE5FDF4FE1
:1001100058834A93C150D040472F50E0440F551F99
:100120005260CC5FDF4F58834A93C350D04090E079
:10013000880F991F9260CA5FDF4F98838A93C550DA
:10014000D0408C2F9D2F8F5F9F4FCADF42E048BB6E
:100150008C2F9D2F8F5F9F4FC3DF882309F43FC0F3
:1001600045B5427045BD4423D9F38C2F9D2F8F5F39
:100170009F4FB6DF80FF02C0319A01C03198CF5F38
:10018000DF4F49915881C250D04056954795CE5F78
:10019000DF4F58834A93C150D040CD5FDF4F499124
:1001A0005881C450D04056954795CC5FDF4F588357
:1001B0004A93C350D040CB5FDF4F49915881C6501E
:1001C000D04056954795CA5FDF4F58834A93C55034
:1001D000D0408C2F9D2F8F5F9F4F82DFB9CF18BBF0
:1001E00017BB0F910F910F910F910F910F91DF910D
:1001F000CF910895682F782F7DDF0895299A319A3D
:1002000042E049BB47E646BB08952F933F93CF9307
:10021000DF93CDB7DEB7262F342F682F782F6ADF14
:10022000622F722F822F66DF632F732F832F62DF7F
:10023000DF91CF913F912F91089548B1437051F0D4
:1002400048E047A948B1437046A948B14C7F48B936
:1002500048B109C149B1442339F049E047A949B13E
:1002600046A919B949B1FFC04AB14F7051F04AE0EF
:1002700047A94AB14F7046A94AB1407F4AB94AB12D
:10028000F2C04DB1442339F04DE047A94DB146A924
:100290001DB94DB1E8C040B34F7759F040E147A9CF
:1002A00040B34F7746A940B3407840BB40B34F7747
:1002B000DAC041B34F7C51F041E147A941B34F7CD3
:1002C00046A941B3407341BB41B38AC042B3442302
:1002D00039F042E147A942B346A912BB42B3C3C0B9
:1002E00043B34F7E59F043E147A943B34F7E46A93C
:1002F00043B3407143BB43B34F7EB5C045B34423C2
:1003000039F045E147A945B346A915BB45B3ABC094
:1003100040B5442339F040E247A940B546A910BD95
:1003200040B5A1C041B5442339F041E247A941B5E8
:1003300046A911BD41B597C043B54F7D51F043E289
:1003400047A943B54F7D46A943B5407243BD43B568
:1003500089C044B5437F59F044E247A944B5437F7F
:1003600046A944B54C7044BD44B5437F7CC047B5F5
:10037000417859F047E247A947B5417846A947B5C2
:100380004E7747BD47B541786EC048B5442341F02C
:1003900048E247A948B546A918BD18BD15A964C0CB
:1003A00049B5442339F049E247A949B546A919BDE1
:1003B00049B559C04AB5442339F04AE247A94AB57C
:1003C00046A91ABD4AB54FC04BB54F7C59F04BE218
:1003D00047A94BB54F7C46A94BB540734BBD4BB5B8
:1003E0004F7C41C00CB502FF0BC04CE247A94CB595
:1003F000447046A94CB54B7F4CBD4CB5447033C0DE
:100400004DB54F7B59F04DE247A94DB54F7B46A9FD
:100410004DB540744DBD4DB54F7B25C040B744230D
:1004200039F040E347A940B746A910BF40B71BC009
:1004300045B74F7159F045E347A945B74F7146A9F4
:1004400045B7407E45BF45B74F710DC04AB74F7D98
:1004500099F04AE347A94AB74F7D46A94AB7407287
:100460004ABF4AB74F7D45A984E2C4DE84E2C2DEBA
:1004700045A166A187A1C9CE08952F933F93CF933D
:10048000DF93CDB7DEB7E82FF92F262F372F608106
:10049000A22FB32F7C91A42FB52F8C91671309C085
:1004A000681731F147A96C9166A960816C9365A9C1
:1004B00012C0681308C027A9A22FB32F4C9146A9D8
:1004C00040814C9307C0E7A9408146A9A22FB32FD2
:1004D0004C91408345A92E2F3F2F84E28BDE84E58B
:1004E00089DE45A166A187A190DEE22FF32F8081EE
:1004F000DF91CF913F912F910895482F592F4E5F53
:100500005F4F682F792F6F5F7F4FB7CF10A911A969
:1005100012A980E490E0F1DF823308F042C080E469
:1005200090E0EBDF90E0E82FF92FE85BFF4F408190
:100530004A3A69F180E490E0E0DF90E0885B9F4F09
:1005400087A980E490E0D9DF90E0E82FF92FE85BFD
:10055000FF4F408146A980E490E0CFDF90E0E82F94
:10056000F92FE85BFF4F4AEA408380E490E0C5DF63
:1005700090E0E82FF92FE85BFF4F408145A984E226
:1005800039DE82E537DE45A166A187A13EDE40A1C6
:100590004F5F40A941A14F5F41A942A14F5F42A9CE
:1005A000B8CF089548ED4CBF16BF28DE0D9A10A9AC
:1005B00011A912A980E490E0A0DF823300F580E465
:1005C00090E09BDF90E0E82FF92FE85BFF4F4AEACD
:1005D000408340A14F5F40A941A14F5F41A942A183
:1005E0004F5F42A9E7CF52B140E2452742B944A14B
:1005F0004F5F44A94A3019F48EE2FCDD14A986DF6E
:100600001CDE43A14F5F43A94113F9CFECCFF8940F
:02061000FFCF1A
:00000001FF
