:1000000010C01FC01EC01DC01CC01BC01AC019C01C
:1000100018C06CC016C015C014C013C012C011C0E7
:1000200010C011271FBFCFEBD0E0DEBFCDBF20E057
:10003000A0E4B0E001C01D93A837B207E1F741D1B9
:100040009EC1DECF66A777A744A755A7641775079B
:1000500039F464A775A742A753A764177507E1F0A1
:1000600066A777A744A755A76417750729F446A77D
:1000700057A753AF42AF10C066A777A742A753A7B1
:100080006417750729F446A757A755AF44AF04C0B6
:1000900044A755A757AF46AF86A797A7089597AF30
:1000A00086AF95AF84AF93AF82AF0895CF93C82F3B
:1000B000C9DF892B41F48C2F90E0880F991F926043
:1000C000EEDF42E048BBCF910895299A319A42E091
:1000D00049BB46B5426046BD47E646BB78940895A5
:1000E000CF93C62FE3DF8C2FCF91E0CF1F930F93D9
:1000F0000FB70F9310E04F935F936F937F938F939E
:100100009F93AF93BF93EF93FF939CDF80FF02C059
:10011000319A01C0319896DF96958795C0DF92DFBE
:10012000892B11F418BB17BBFF91EF91BF91AF91D1
:100130009F918F917F916F915F914F910F910FBF21
:100140000F911F9118952F933F93CF93DF93CDB7C6
:10015000DEB7E82FF92F262F372F6081A22FB32F7C
:100160007C91A42FB52F8C91671308C06817F9F004
:1001700042A96C9161A960816C9311C0681308C099
:1001800022A9A22FB32F4C9141A940814C9307C0C3
:10019000E2A9408141A9A22FB32F4C9140832E2F79
:1001A0003F2F61A182A19CDFE22FF32F8081DF919D
:1001B000CF913F912F910895482F592F4E5F5F4F58
:1001C000682F792F6F5F7F4FBECF2F933F93CF93D1
:1001D000DF9300D01F93CDB7DEB7282F392FCF5F25
:1001E000DF4F1883C150D040CE5FDF4F1883C2501D
:1001F000D040CD5FDF4F1883C350D0408C2F9D2F50
:100200008F5F9F4FD9DF8F3208F053C08C2F9D2F07
:100210008F5F9F4FD1DF90E0E82FF92FED5BFF4F0D
:10022000408150E04217530711F18C2F9D2F8F5FB3
:100230009F4FC2DF90E08D5B9F4F82A98C2F9D2F37
:100240008F5F9F4FB9DF90E0E82FF92FED5BFF4FF5
:10025000608161A982A144DF8C2F9D2F8F5F9F4F0A
:10026000ABDF90E0E82FF92FED5BFF4F2083CF5FEE
:10027000DF4F4881C150D0404F5FCF5FDF4F488391
:10028000C150D040CE5FDF4F4881C250D0404F5F59
:10029000CE5FDF4F4883C250D040CD5FDF4F4881F3
:1002A000C350D0404F5FCD5FDF4F4883C350D04035
:1002B000A5CF0F910F910F91DF91CF913F912F918A
:1002C0000895CF93DF9300D01F93CDB7DEB748EDED
:1002D0004CBF16BFFADE0D9ACF5FDF4F1883C150B7
:1002E000D040CE5FDF4F1883C250D040CD5FDF4F8C
:1002F0001883C350D0408C2F9D2F8F5F9F4F5CDFA2
:100300008F32A0F58C2F9D2F8F5F9F4F55DF90E090
:10031000E82FF92FED5BFF4F4AEA4083CF5FDF4FB5
:100320004881C150D0404F5FCF5FDF4F4883C150FD
:10033000D040CE5FDF4F4881C250D0404F5FCE5F8C
:10034000DF4F4883C250D040CD5FDF4F4881C3505C
:10035000D0404F5FCD5FDF4F4883C350D040CBCFFD
:1003600052B140E2452742B98EE2A0DE8AEA90E02F
:100370002CDF40A14F5F40A94113F8CFF1CFF89493
:02038000FFCFAD
:00000001FF
